{
  "_format": "hh-sol-artifact-1",
  "contractName": "SupplyChain",
  "sourceName": "contracts/SupplyChain.sol",
  "abi": [
    {
      "inputs": [],
      "stateMutability": "nonpayable",
      "type": "constructor"
    },
    {
      "anonymous": false,
      "inputs": [
        {
          "indexed": true,
          "internalType": "uint256",
          "name": "_itemId",
          "type": "uint256"
        }
      ],
      "name": "ItemManufactured",
      "type": "event"
    },
    {
      "anonymous": false,
      "inputs": [
        {
          "indexed": true,
          "internalType": "uint256",
          "name": "_itemId",
          "type": "uint256"
        }
      ],
      "name": "ItemShippedToDistributor",
      "type": "event"
    },
    {
      "anonymous": false,
      "inputs": [
        {
          "indexed": true,
          "internalType": "uint256",
          "name": "_itemId",
          "type": "uint256"
        }
      ],
      "name": "ItemShippedToRetailer",
      "type": "event"
    },
    {
      "anonymous": false,
      "inputs": [
        {
          "indexed": true,
          "internalType": "uint256",
          "name": "_itemId",
          "type": "uint256"
        }
      ],
      "name": "ItemSold",
      "type": "event"
    },
    {
      "anonymous": false,
      "inputs": [
        {
          "indexed": true,
          "internalType": "address",
          "name": "_user",
          "type": "address"
        }
      ],
      "name": "VerificationApproved",
      "type": "event"
    },
    {
      "anonymous": false,
      "inputs": [
        {
          "indexed": true,
          "internalType": "address",
          "name": "_user",
          "type": "address"
        }
      ],
      "name": "VerificationRejected",
      "type": "event"
    },
    {
      "inputs": [
        {
          "internalType": "address",
          "name": "_user",
          "type": "address"
        }
      ],
      "name": "approveVerification",
      "outputs": [],
      "stateMutability": "nonpayable",
      "type": "function"
    },
    {
      "inputs": [],
      "name": "itemCount",
      "outputs": [
        {
          "internalType": "uint256",
          "name": "",
          "type": "uint256"
        }
      ],
      "stateMutability": "view",
      "type": "function"
    },
    {
      "inputs": [
        {
          "internalType": "uint256",
          "name": "",
          "type": "uint256"
        }
      ],
      "name": "items",
      "outputs": [
        {
          "internalType": "string",
          "name": "name",
          "type": "string"
        },
        {
          "internalType": "string",
          "name": "description",
          "type": "string"
        },
        {
          "internalType": "enum SupplyChain.State",
          "name": "state",
          "type": "uint8"
        },
        {
          "components": [
            {
              "internalType": "address",
              "name": "id",
              "type": "address"
            },
            {
              "internalType": "enum SupplyChain.Role",
              "name": "role",
              "type": "uint8"
            },
            {
              "internalType": "string",
              "name": "name",
              "type": "string"
            },
            {
              "internalType": "enum SupplyChain.VerificationStatus",
              "name": "verificationStatus",
              "type": "uint8"
            }
          ],
          "internalType": "struct SupplyChain.Participant",
          "name": "manufacturer",
          "type": "tuple"
        },
        {
          "components": [
            {
              "internalType": "address",
              "name": "id",
              "type": "address"
            },
            {
              "internalType": "enum SupplyChain.Role",
              "name": "role",
              "type": "uint8"
            },
            {
              "internalType": "string",
              "name": "name",
              "type": "string"
            },
            {
              "internalType": "enum SupplyChain.VerificationStatus",
              "name": "verificationStatus",
              "type": "uint8"
            }
          ],
          "internalType": "struct SupplyChain.Participant",
          "name": "distributor",
          "type": "tuple"
        },
        {
          "components": [
            {
              "internalType": "address",
              "name": "id",
              "type": "address"
            },
            {
              "internalType": "enum SupplyChain.Role",
              "name": "role",
              "type": "uint8"
            },
            {
              "internalType": "string",
              "name": "name",
              "type": "string"
            },
            {
              "internalType": "enum SupplyChain.VerificationStatus",
              "name": "verificationStatus",
              "type": "uint8"
            }
          ],
          "internalType": "struct SupplyChain.Participant",
          "name": "retailer",
          "type": "tuple"
        },
        {
          "components": [
            {
              "internalType": "address",
              "name": "id",
              "type": "address"
            },
            {
              "internalType": "enum SupplyChain.Role",
              "name": "role",
              "type": "uint8"
            },
            {
              "internalType": "string",
              "name": "name",
              "type": "string"
            },
            {
              "internalType": "enum SupplyChain.VerificationStatus",
              "name": "verificationStatus",
              "type": "uint8"
            }
          ],
          "internalType": "struct SupplyChain.Participant",
          "name": "customer",
          "type": "tuple"
        },
        {
          "internalType": "uint256",
          "name": "manufacturedTimestamp",
          "type": "uint256"
        },
        {
          "internalType": "uint256",
          "name": "shippedToDistributorTimestamp",
          "type": "uint256"
        },
        {
          "internalType": "uint256",
          "name": "shippedToRetailerTimestamp",
          "type": "uint256"
        },
        {
          "internalType": "uint256",
          "name": "soldTimestamp",
          "type": "uint256"
        }
      ],
      "stateMutability": "view",
      "type": "function"
    },
    {
      "inputs": [
        {
          "internalType": "string",
          "name": "_itemName",
          "type": "string"
        },
        {
          "internalType": "string",
          "name": "_itemDescription",
          "type": "string"
        }
      ],
      "name": "manufactureItem",
      "outputs": [],
      "stateMutability": "nonpayable",
      "type": "function"
    },
    {
      "inputs": [],
      "name": "owner",
      "outputs": [
        {
          "internalType": "address",
          "name": "",
          "type": "address"
        }
      ],
      "stateMutability": "view",
      "type": "function"
    },
    {
      "inputs": [
        {
          "internalType": "address",
          "name": "",
          "type": "address"
        }
      ],
      "name": "participants",
      "outputs": [
        {
          "internalType": "address",
          "name": "id",
          "type": "address"
        },
        {
          "internalType": "enum SupplyChain.Role",
          "name": "role",
          "type": "uint8"
        },
        {
          "internalType": "string",
          "name": "name",
          "type": "string"
        },
        {
          "internalType": "enum SupplyChain.VerificationStatus",
          "name": "verificationStatus",
          "type": "uint8"
        }
      ],
      "stateMutability": "view",
      "type": "function"
    },
    {
      "inputs": [
        {
          "internalType": "enum SupplyChain.Role",
          "name": "_role",
          "type": "uint8"
        },
        {
          "internalType": "string",
          "name": "_userName",
          "type": "string"
        }
      ],
      "name": "registerUser",
      "outputs": [],
      "stateMutability": "nonpayable",
      "type": "function"
    },
    {
      "inputs": [
        {
          "internalType": "address",
          "name": "_user",
          "type": "address"
        }
      ],
      "name": "rejectVerification",
      "outputs": [],
      "stateMutability": "nonpayable",
      "type": "function"
    },
    {
      "inputs": [],
      "name": "requestVerification",
      "outputs": [],
      "stateMutability": "nonpayable",
      "type": "function"
    },
    {
      "inputs": [
        {
          "internalType": "uint256",
          "name": "_itemId",
          "type": "uint256"
        }
      ],
      "name": "sellItem",
      "outputs": [],
      "stateMutability": "nonpayable",
      "type": "function"
    },
    {
      "inputs": [
        {
          "internalType": "uint256",
          "name": "_itemId",
          "type": "uint256"
        },
        {
          "internalType": "address",
          "name": "_distributorAddress",
          "type": "address"
        }
      ],
      "name": "shipItemToDistributor",
      "outputs": [],
      "stateMutability": "nonpayable",
      "type": "function"
    },
    {
      "inputs": [
        {
          "internalType": "uint256",
          "name": "_itemId",
          "type": "uint256"
        },
        {
          "internalType": "address",
          "name": "_retailerAddress",
          "type": "address"
        }
      ],
      "name": "shipItemToRetailer",
      "outputs": [],
      "stateMutability": "nonpayable",
      "type": "function"
    }
  ],
  "bytecode": "0x60806040523480156200001157600080fd5b5033600360006101000a81548173ffffffffffffffffffffffffffffffffffffffff021916908373ffffffffffffffffffffffffffffffffffffffff1602179055506040518060800160405280600360009054906101000a900473ffffffffffffffffffffffffffffffffffffffff1673ffffffffffffffffffffffffffffffffffffffff16815260200160006003811115620000b357620000b26200023c565b5b81526020016040518060400160405280600581526020017f4f776e65720000000000000000000000000000000000000000000000000000008152508152602001600260038111156200010a57620001096200023c565b5b81525060026000600360009054906101000a900473ffffffffffffffffffffffffffffffffffffffff1673ffffffffffffffffffffffffffffffffffffffff1673ffffffffffffffffffffffffffffffffffffffff16815260200190815260200160002060008201518160000160006101000a81548173ffffffffffffffffffffffffffffffffffffffff021916908373ffffffffffffffffffffffffffffffffffffffff16021790555060208201518160000160146101000a81548160ff02191690836003811115620001e357620001e26200023c565b5b02179055506040820151816001019081620001ff9190620004e5565b5060608201518160020160006101000a81548160ff021916908360038111156200022e576200022d6200023c565b5b0217905550905050620005cc565b7f4e487b7100000000000000000000000000000000000000000000000000000000600052602160045260246000fd5b600081519050919050565b7f4e487b7100000000000000000000000000000000000000000000000000000000600052604160045260246000fd5b7f4e487b7100000000000000000000000000000000000000000000000000000000600052602260045260246000fd5b60006002820490506001821680620002ed57607f821691505b602082108103620003035762000302620002a5565b5b50919050565b60008190508160005260206000209050919050565b60006020601f8301049050919050565b600082821b905092915050565b6000600883026200036d7fffffffffffffffffffffffffffffffffffffffffffffffffffffffffffffffff826200032e565b6200037986836200032e565b95508019841693508086168417925050509392505050565b6000819050919050565b6000819050919050565b6000620003c6620003c0620003ba8462000391565b6200039b565b62000391565b9050919050565b6000819050919050565b620003e283620003a5565b620003fa620003f182620003cd565b8484546200033b565b825550505050565b600090565b6200041162000402565b6200041e818484620003d7565b505050565b5b8181101562000446576200043a60008262000407565b60018101905062000424565b5050565b601f82111562000495576200045f8162000309565b6200046a846200031e565b810160208510156200047a578190505b6200049262000489856200031e565b83018262000423565b50505b505050565b600082821c905092915050565b6000620004ba600019846008026200049a565b1980831691505092915050565b6000620004d58383620004a7565b9150826002028217905092915050565b620004f0826200026b565b67ffffffffffffffff8111156200050c576200050b62000276565b5b620005188254620002d4565b620005258282856200044a565b600060209050601f8311600181146200055d576000841562000548578287015190505b620005548582620004c7565b865550620005c4565b601f1984166200056d8662000309565b60005b82811015620005975784890151825560018201915060208501945060208101905062000570565b86831015620005b75784890151620005b3601f891682620004a7565b8355505b6001600288020188555050505b505050505050565b613a9b80620005dc6000396000f3fe608060405234801561001057600080fd5b50600436106100b45760003560e01c80638da5cb5b116100715780638da5cb5b1461016857806391b6be9a1461018657806397c1db2e146101a2578063bfb231d2146101be578063c4eef4a2146101f8578063d29bcc5c14610214576100b4565b806307ec3039146100b957806309e69ede146100c35780630b0f1052146100f65780633f7fb53b146101125780635975b0881461012e5780636bfb0d011461014a575b600080fd5b6100c1610230565b005b6100dd60048036038101906100d8919061265a565b610531565b6040516100ed94939291906127e5565b60405180910390f35b610110600480360381019061010b9190612867565b610623565b005b61012c6004803603810190610127919061265a565b610a6e565b005b61014860048036038101906101439190612867565b610c64565b005b6101526110b0565b60405161015f91906128b6565b60405180910390f35b6101706110b6565b60405161017d91906128d1565b60405180910390f35b6101a0600480360381019061019b91906128ec565b6110dc565b005b6101bc60048036038101906101b79190612a4e565b6112b6565b005b6101d860048036038101906101d391906128ec565b611ac5565b6040516101ef9b9a99989796959493929190612be8565b60405180910390f35b610212600480360381019061020d919061265a565b6121dc565b005b61022e60048036038101906102299190612ce2565b6123d3565b005b600360009054906101000a900473ffffffffffffffffffffffffffffffffffffffff1673ffffffffffffffffffffffffffffffffffffffff163373ffffffffffffffffffffffffffffffffffffffff16036102c0576040517f08c379a00000000000000000000000000000000000000000000000000000000081526004016102b790612db0565b60405180910390fd5b600073ffffffffffffffffffffffffffffffffffffffff16600260003373ffffffffffffffffffffffffffffffffffffffff1673ffffffffffffffffffffffffffffffffffffffff16815260200190815260200160002060000160009054906101000a900473ffffffffffffffffffffffffffffffffffffffff1673ffffffffffffffffffffffffffffffffffffffff1603610391576040517f08c379a000000000000000000000000000000000000000000000000000000000815260040161038890612e42565b60405180910390fd5b600060038111156103a5576103a4612696565b5b600260003373ffffffffffffffffffffffffffffffffffffffff1673ffffffffffffffffffffffffffffffffffffffff16815260200190815260200160002060020160009054906101000a900460ff16600381111561040757610406612696565b5b1480610485575060038081111561042157610420612696565b5b600260003373ffffffffffffffffffffffffffffffffffffffff1673ffffffffffffffffffffffffffffffffffffffff16815260200190815260200160002060020160009054906101000a900460ff16600381111561048357610482612696565b5b145b6104c4576040517f08c379a00000000000000000000000000000000000000000000000000000000081526004016104bb90612ed4565b60405180910390fd5b6001600260003373ffffffffffffffffffffffffffffffffffffffff1673ffffffffffffffffffffffffffffffffffffffff16815260200190815260200160002060020160006101000a81548160ff0219169083600381111561052a57610529612696565b5b0217905550565b60026020528060005260406000206000915090508060000160009054906101000a900473ffffffffffffffffffffffffffffffffffffffff16908060000160149054906101000a900460ff169080600101805461058d90612f23565b80601f01602080910402602001604051908101604052809291908181526020018280546105b990612f23565b80156106065780601f106105db57610100808354040283529160200191610606565b820191906000526020600020905b8154815290600101906020018083116105e957829003601f168201915b5050505050908060020160009054906101000a900460ff16905084565b813373ffffffffffffffffffffffffffffffffffffffff166001600083815260200190815260200160002060030160000160009054906101000a900473ffffffffffffffffffffffffffffffffffffffff1673ffffffffffffffffffffffffffffffffffffffff16146106cb576040517f08c379a00000000000000000000000000000000000000000000000000000000081526004016106c290612fc6565b60405180910390fd5b600260038111156106df576106de612696565b5b600260008473ffffffffffffffffffffffffffffffffffffffff1673ffffffffffffffffffffffffffffffffffffffff16815260200190815260200160002060000160149054906101000a900460ff16600381111561074157610740612696565b5b14610781576040517f08c379a000000000000000000000000000000000000000000000000000000000815260040161077890613032565b60405180910390fd5b3373ffffffffffffffffffffffffffffffffffffffff166001600085815260200190815260200160002060030160000160009054906101000a900473ffffffffffffffffffffffffffffffffffffffff1673ffffffffffffffffffffffffffffffffffffffff1614610828576040517f08c379a000000000000000000000000000000000000000000000000000000000815260040161081f906130ea565b60405180910390fd5b3373ffffffffffffffffffffffffffffffffffffffff168273ffffffffffffffffffffffffffffffffffffffff1603610896576040517f08c379a000000000000000000000000000000000000000000000000000000000815260040161088d9061317c565b60405180910390fd5b600180600085815260200190815260200160002060020160006101000a81548160ff021916908360038111156108cf576108ce612696565b5b0217905550600260008373ffffffffffffffffffffffffffffffffffffffff1673ffffffffffffffffffffffffffffffffffffffff168152602001908152602001600020600160008581526020019081526020016000206006016000820160009054906101000a900473ffffffffffffffffffffffffffffffffffffffff168160000160006101000a81548173ffffffffffffffffffffffffffffffffffffffff021916908373ffffffffffffffffffffffffffffffffffffffff1602179055506000820160149054906101000a900460ff168160000160146101000a81548160ff021916908360038111156109c8576109c7612696565b5b0217905550600182018160010190816109e1919061335e565b506002820160009054906101000a900460ff168160020160006101000a81548160ff02191690836003811115610a1a57610a19612696565b5b0217905550905050426001600085815260200190815260200160002060100181905550827ea035d3fc290c5fbc3c5dac91b1d8fdb7d77a1db9152c97b5f8d035890b2f6a60405160405180910390a2505050565b600360009054906101000a900473ffffffffffffffffffffffffffffffffffffffff1673ffffffffffffffffffffffffffffffffffffffff163373ffffffffffffffffffffffffffffffffffffffff1614610afe576040517f08c379a0000000000000000000000000000000000000000000000000000000008152600401610af5906134b8565b60405180910390fd5b60016003811115610b1257610b11612696565b5b600260008373ffffffffffffffffffffffffffffffffffffffff1673ffffffffffffffffffffffffffffffffffffffff16815260200190815260200160002060020160009054906101000a900460ff166003811115610b7457610b73612696565b5b14610bb4576040517f08c379a0000000000000000000000000000000000000000000000000000000008152600401610bab9061354a565b60405180910390fd5b60028060008373ffffffffffffffffffffffffffffffffffffffff1673ffffffffffffffffffffffffffffffffffffffff16815260200190815260200160002060020160006101000a81548160ff02191690836003811115610c1957610c18612696565b5b02179055508073ffffffffffffffffffffffffffffffffffffffff167fc08f4058f0b8ad2f4d0a56d453ba6498de665affab33a6f78d7d5ff85cbabcc560405160405180910390a250565b813373ffffffffffffffffffffffffffffffffffffffff166001600083815260200190815260200160002060060160000160009054906101000a900473ffffffffffffffffffffffffffffffffffffffff1673ffffffffffffffffffffffffffffffffffffffff1614610d0c576040517f08c379a0000000000000000000000000000000000000000000000000000000008152600401610d03906135dc565b60405180910390fd5b600380811115610d1f57610d1e612696565b5b600260008473ffffffffffffffffffffffffffffffffffffffff1673ffffffffffffffffffffffffffffffffffffffff16815260200190815260200160002060000160149054906101000a900460ff166003811115610d8157610d80612696565b5b14610dc1576040517f08c379a0000000000000000000000000000000000000000000000000000000008152600401610db890613648565b60405180910390fd5b3373ffffffffffffffffffffffffffffffffffffffff166001600085815260200190815260200160002060060160000160009054906101000a900473ffffffffffffffffffffffffffffffffffffffff1673ffffffffffffffffffffffffffffffffffffffff1614610e68576040517f08c379a0000000000000000000000000000000000000000000000000000000008152600401610e5f906136da565b60405180910390fd5b3373ffffffffffffffffffffffffffffffffffffffff168273ffffffffffffffffffffffffffffffffffffffff1603610ed6576040517f08c379a0000000000000000000000000000000000000000000000000000000008152600401610ecd9061317c565b60405180910390fd5b60026001600085815260200190815260200160002060020160006101000a81548160ff02191690836003811115610f1057610f0f612696565b5b0217905550600260008373ffffffffffffffffffffffffffffffffffffffff1673ffffffffffffffffffffffffffffffffffffffff168152602001908152602001600020600160008581526020019081526020016000206009016000820160009054906101000a900473ffffffffffffffffffffffffffffffffffffffff168160000160006101000a81548173ffffffffffffffffffffffffffffffffffffffff021916908373ffffffffffffffffffffffffffffffffffffffff1602179055506000820160149054906101000a900460ff168160000160146101000a81548160ff0219169083600381111561100957611008612696565b5b021790555060018201816001019081611022919061335e565b506002820160009054906101000a900460ff168160020160006101000a81548160ff0219169083600381111561105b5761105a612696565b5b0217905550905050426001600085815260200190815260200160002060110181905550827ffdc9c1b22f0da57a19aa2ddffa4066c50c121d860bbd3a37586d16b4acd8a70c60405160405180910390a2505050565b60005481565b600360009054906101000a900473ffffffffffffffffffffffffffffffffffffffff1681565b803373ffffffffffffffffffffffffffffffffffffffff166001600083815260200190815260200160002060090160000160009054906101000a900473ffffffffffffffffffffffffffffffffffffffff1673ffffffffffffffffffffffffffffffffffffffff1614611184576040517f08c379a000000000000000000000000000000000000000000000000000000000815260040161117b9061376c565b60405180910390fd5b3373ffffffffffffffffffffffffffffffffffffffff166001600084815260200190815260200160002060090160000160009054906101000a900473ffffffffffffffffffffffffffffffffffffffff1673ffffffffffffffffffffffffffffffffffffffff161461122b576040517f08c379a0000000000000000000000000000000000000000000000000000000008152600401611222906137fe565b60405180910390fd5b60036001600084815260200190815260200160002060020160006101000a81548160ff0219169083600381111561126557611264612696565b5b0217905550426001600084815260200190815260200160002060120181905550817fadf6d10d44a697fd240c9a1ef648f41cd3fdb3d0381c241842dcd46b3dfbd04160405160405180910390a25050565b600160038111156112ca576112c9612696565b5b600260003373ffffffffffffffffffffffffffffffffffffffff1673ffffffffffffffffffffffffffffffffffffffff16815260200190815260200160002060000160149054906101000a900460ff16600381111561132c5761132b612696565b5b1461136c576040517f08c379a000000000000000000000000000000000000000000000000000000000815260040161136390613890565b60405180910390fd5b60008081548092919061137e906138df565b91905055506000604051806101600160405280848152602001838152602001600060038111156113b1576113b0612696565b5b8152602001600260003373ffffffffffffffffffffffffffffffffffffffff1673ffffffffffffffffffffffffffffffffffffffff1681526020019081526020016000206040518060800160405290816000820160009054906101000a900473ffffffffffffffffffffffffffffffffffffffff1673ffffffffffffffffffffffffffffffffffffffff1673ffffffffffffffffffffffffffffffffffffffff1681526020016000820160149054906101000a900460ff16600381111561147b5761147a612696565b5b600381111561148d5761148c612696565b5b81526020016001820180546114a190612f23565b80601f01602080910402602001604051908101604052809291908181526020018280546114cd90612f23565b801561151a5780601f106114ef5761010080835404028352916020019161151a565b820191906000526020600020905b8154815290600101906020018083116114fd57829003601f168201915b505050505081526020016002820160009054906101000a900460ff16600381111561154857611547612696565b5b600381111561155a57611559612696565b5b8152505081526020016040518060800160405280600073ffffffffffffffffffffffffffffffffffffffff1681526020016002600381111561159f5761159e612696565b5b8152602001604051806020016040528060008152508152602001600060038111156115cd576115cc612696565b5b81525081526020016040518060800160405280600073ffffffffffffffffffffffffffffffffffffffff1681526020016003808111156116105761160f612696565b5b81526020016040518060200160405280600081525081526020016000600381111561163e5761163d612696565b5b81525081526020016040518060800160405280600073ffffffffffffffffffffffffffffffffffffffff16815260200160038081111561168157611680612696565b5b8152602001604051806020016040528060008152508152602001600060038111156116af576116ae612696565b5b815250815260200142815260200160008152602001600081526020016000815250905080600160008054815260200190815260200160002060008201518160000190816116fc9190613927565b5060208201518160010190816117129190613927565b5060408201518160020160006101000a81548160ff0219169083600381111561173e5761173d612696565b5b021790555060608201518160030160008201518160000160006101000a81548173ffffffffffffffffffffffffffffffffffffffff021916908373ffffffffffffffffffffffffffffffffffffffff16021790555060208201518160000160146101000a81548160ff021916908360038111156117be576117bd612696565b5b021790555060408201518160010190816117d89190613927565b5060608201518160020160006101000a81548160ff0219169083600381111561180457611803612696565b5b0217905550505060808201518160060160008201518160000160006101000a81548173ffffffffffffffffffffffffffffffffffffffff021916908373ffffffffffffffffffffffffffffffffffffffff16021790555060208201518160000160146101000a81548160ff0219169083600381111561188657611885612696565b5b021790555060408201518160010190816118a09190613927565b5060608201518160020160006101000a81548160ff021916908360038111156118cc576118cb612696565b5b0217905550505060a08201518160090160008201518160000160006101000a81548173ffffffffffffffffffffffffffffffffffffffff021916908373ffffffffffffffffffffffffffffffffffffffff16021790555060208201518160000160146101000a81548160ff0219169083600381111561194e5761194d612696565b5b021790555060408201518160010190816119689190613927565b5060608201518160020160006101000a81548160ff0219169083600381111561199457611993612696565b5b0217905550505060c082015181600c0160008201518160000160006101000a81548173ffffffffffffffffffffffffffffffffffffffff021916908373ffffffffffffffffffffffffffffffffffffffff16021790555060208201518160000160146101000a81548160ff02191690836003811115611a1657611a15612696565b5b02179055506040820151816001019081611a309190613927565b5060608201518160020160006101000a81548160ff02191690836003811115611a5c57611a5b612696565b5b0217905550505060e082015181600f01556101008201518160100155610120820151816011015561014082015181601201559050506000547f10fa3189f08c22b87bab9f8f7d565ca47f0ea54cdd124f46eb1ac8a47b21e82f60405160405180910390a2505050565b6001602052806000526040600020600091509050806000018054611ae890612f23565b80601f0160208091040260200160405190810160405280929190818152602001828054611b1490612f23565b8015611b615780601f10611b3657610100808354040283529160200191611b61565b820191906000526020600020905b815481529060010190602001808311611b4457829003601f168201915b505050505090806001018054611b7690612f23565b80601f0160208091040260200160405190810160405280929190818152602001828054611ba290612f23565b8015611bef5780601f10611bc457610100808354040283529160200191611bef565b820191906000526020600020905b815481529060010190602001808311611bd257829003601f168201915b5050505050908060020160009054906101000a900460ff1690806003016040518060800160405290816000820160009054906101000a900473ffffffffffffffffffffffffffffffffffffffff1673ffffffffffffffffffffffffffffffffffffffff1673ffffffffffffffffffffffffffffffffffffffff1681526020016000820160149054906101000a900460ff166003811115611c9257611c91612696565b5b6003811115611ca457611ca3612696565b5b8152602001600182018054611cb890612f23565b80601f0160208091040260200160405190810160405280929190818152602001828054611ce490612f23565b8015611d315780601f10611d0657610100808354040283529160200191611d31565b820191906000526020600020905b815481529060010190602001808311611d1457829003601f168201915b505050505081526020016002820160009054906101000a900460ff166003811115611d5f57611d5e612696565b5b6003811115611d7157611d70612696565b5b8152505090806006016040518060800160405290816000820160009054906101000a900473ffffffffffffffffffffffffffffffffffffffff1673ffffffffffffffffffffffffffffffffffffffff1673ffffffffffffffffffffffffffffffffffffffff1681526020016000820160149054906101000a900460ff166003811115611e0057611dff612696565b5b6003811115611e1257611e11612696565b5b8152602001600182018054611e2690612f23565b80601f0160208091040260200160405190810160405280929190818152602001828054611e5290612f23565b8015611e9f5780601f10611e7457610100808354040283529160200191611e9f565b820191906000526020600020905b815481529060010190602001808311611e8257829003601f168201915b505050505081526020016002820160009054906101000a900460ff166003811115611ecd57611ecc612696565b5b6003811115611edf57611ede612696565b5b8152505090806009016040518060800160405290816000820160009054906101000a900473ffffffffffffffffffffffffffffffffffffffff1673ffffffffffffffffffffffffffffffffffffffff1673ffffffffffffffffffffffffffffffffffffffff1681526020016000820160149054906101000a900460ff166003811115611f6e57611f6d612696565b5b6003811115611f8057611f7f612696565b5b8152602001600182018054611f9490612f23565b80601f0160208091040260200160405190810160405280929190818152602001828054611fc090612f23565b801561200d5780601f10611fe25761010080835404028352916020019161200d565b820191906000526020600020905b815481529060010190602001808311611ff057829003601f168201915b505050505081526020016002820160009054906101000a900460ff16600381111561203b5761203a612696565b5b600381111561204d5761204c612696565b5b815250509080600c016040518060800160405290816000820160009054906101000a900473ffffffffffffffffffffffffffffffffffffffff1673ffffffffffffffffffffffffffffffffffffffff1673ffffffffffffffffffffffffffffffffffffffff1681526020016000820160149054906101000a900460ff1660038111156120dc576120db612696565b5b60038111156120ee576120ed612696565b5b815260200160018201805461210290612f23565b80601f016020809104026020016040519081016040528092919081815260200182805461212e90612f23565b801561217b5780601f106121505761010080835404028352916020019161217b565b820191906000526020600020905b81548152906001019060200180831161215e57829003601f168201915b505050505081526020016002820160009054906101000a900460ff1660038111156121a9576121a8612696565b5b60038111156121bb576121ba612696565b5b815250509080600f015490806010015490806011015490806012015490508b565b600360009054906101000a900473ffffffffffffffffffffffffffffffffffffffff1673ffffffffffffffffffffffffffffffffffffffff163373ffffffffffffffffffffffffffffffffffffffff161461226c576040517f08c379a0000000000000000000000000000000000000000000000000000000008152600401612263906134b8565b60405180910390fd5b600160038111156122805761227f612696565b5b600260008373ffffffffffffffffffffffffffffffffffffffff1673ffffffffffffffffffffffffffffffffffffffff16815260200190815260200160002060020160009054906101000a900460ff1660038111156122e2576122e1612696565b5b14612322576040517f08c379a00000000000000000000000000000000000000000000000000000000081526004016123199061354a565b60405180910390fd5b6003600260008373ffffffffffffffffffffffffffffffffffffffff1673ffffffffffffffffffffffffffffffffffffffff16815260200190815260200160002060020160006101000a81548160ff0219169083600381111561238857612387612696565b5b02179055508073ffffffffffffffffffffffffffffffffffffffff167fb6e1998480cbed8ef9ba38ba6de031342779ea915a308f8c4294fb114ee941f760405160405180910390a250565b600060038111156123e7576123e6612696565b5b600260003373ffffffffffffffffffffffffffffffffffffffff1673ffffffffffffffffffffffffffffffffffffffff16815260200190815260200160002060000160149054906101000a900460ff16600381111561244957612448612696565b5b14612489576040517f08c379a000000000000000000000000000000000000000000000000000000000815260040161248090613a45565b60405180910390fd5b60405180608001604052803373ffffffffffffffffffffffffffffffffffffffff1681526020018360038111156124c3576124c2612696565b5b8152602001828152602001600060038111156124e2576124e1612696565b5b815250600260003373ffffffffffffffffffffffffffffffffffffffff1673ffffffffffffffffffffffffffffffffffffffff16815260200190815260200160002060008201518160000160006101000a81548173ffffffffffffffffffffffffffffffffffffffff021916908373ffffffffffffffffffffffffffffffffffffffff16021790555060208201518160000160146101000a81548160ff0219169083600381111561259657612595612696565b5b021790555060408201518160010190816125b09190613927565b5060608201518160020160006101000a81548160ff021916908360038111156125dc576125db612696565b5b02179055509050505050565b6000604051905090565b600080fd5b600080fd5b600073ffffffffffffffffffffffffffffffffffffffff82169050919050565b6000612627826125fc565b9050919050565b6126378161261c565b811461264257600080fd5b50565b6000813590506126548161262e565b92915050565b6000602082840312156126705761266f6125f2565b5b600061267e84828501612645565b91505092915050565b6126908161261c565b82525050565b7f4e487b7100000000000000000000000000000000000000000000000000000000600052602160045260246000fd5b600481106126d6576126d5612696565b5b50565b60008190506126e7826126c5565b919050565b60006126f7826126d9565b9050919050565b612707816126ec565b82525050565b600081519050919050565b600082825260208201905092915050565b60005b8381101561274757808201518184015260208101905061272c565b60008484015250505050565b6000601f19601f8301169050919050565b600061276f8261270d565b6127798185612718565b9350612789818560208601612729565b61279281612753565b840191505092915050565b600481106127ae576127ad612696565b5b50565b60008190506127bf8261279d565b919050565b60006127cf826127b1565b9050919050565b6127df816127c4565b82525050565b60006080820190506127fa6000830187612687565b61280760208301866126fe565b81810360408301526128198185612764565b905061282860608301846127d6565b95945050505050565b6000819050919050565b61284481612831565b811461284f57600080fd5b50565b6000813590506128618161283b565b92915050565b6000806040838503121561287e5761287d6125f2565b5b600061288c85828601612852565b925050602061289d85828601612645565b9150509250929050565b6128b081612831565b82525050565b60006020820190506128cb60008301846128a7565b92915050565b60006020820190506128e66000830184612687565b92915050565b600060208284031215612902576129016125f2565b5b600061291084828501612852565b91505092915050565b600080fd5b600080fd5b7f4e487b7100000000000000000000000000000000000000000000000000000000600052604160045260246000fd5b61295b82612753565b810181811067ffffffffffffffff8211171561297a57612979612923565b5b80604052505050565b600061298d6125e8565b90506129998282612952565b919050565b600067ffffffffffffffff8211156129b9576129b8612923565b5b6129c282612753565b9050602081019050919050565b82818337600083830152505050565b60006129f16129ec8461299e565b612983565b905082815260208101848484011115612a0d57612a0c61291e565b5b612a188482856129cf565b509392505050565b600082601f830112612a3557612a34612919565b5b8135612a458482602086016129de565b91505092915050565b60008060408385031215612a6557612a646125f2565b5b600083013567ffffffffffffffff811115612a8357612a826125f7565b5b612a8f85828601612a20565b925050602083013567ffffffffffffffff811115612ab057612aaf6125f7565b5b612abc85828601612a20565b9150509250929050565b60048110612ad757612ad6612696565b5b50565b6000819050612ae882612ac6565b919050565b6000612af882612ada565b9050919050565b612b0881612aed565b82525050565b612b178161261c565b82525050565b612b26816126ec565b82525050565b600082825260208201905092915050565b6000612b488261270d565b612b528185612b2c565b9350612b62818560208601612729565b612b6b81612753565b840191505092915050565b612b7f816127c4565b82525050565b6000608083016000830151612b9d6000860182612b0e565b506020830151612bb06020860182612b1d565b5060408301518482036040860152612bc88282612b3d565b9150506060830151612bdd6060860182612b76565b508091505092915050565b6000610160820190508181036000830152612c03818e612764565b90508181036020830152612c17818d612764565b9050612c26604083018c612aff565b8181036060830152612c38818b612b85565b90508181036080830152612c4c818a612b85565b905081810360a0830152612c608189612b85565b905081810360c0830152612c748188612b85565b9050612c8360e08301876128a7565b612c916101008301866128a7565b612c9f6101208301856128a7565b612cad6101408301846128a7565b9c9b505050505050505050505050565b60048110612cca57600080fd5b50565b600081359050612cdc81612cbd565b92915050565b60008060408385031215612cf957612cf86125f2565b5b6000612d0785828601612ccd565b925050602083013567ffffffffffffffff811115612d2857612d276125f7565b5b612d3485828601612a20565b9150509250929050565b7f4f776e65722063616e6e6f74207265717565737420766572696669636174696f60008201527f6e2e000000000000000000000000000000000000000000000000000000000000602082015250565b6000612d9a602283612718565b9150612da582612d3e565b604082019050919050565b60006020820190508181036000830152612dc981612d8d565b9050919050565b7f55736572206d757374206265207265676973746572656420746f20726571756560008201527f737420766572696669636174696f6e2e00000000000000000000000000000000602082015250565b6000612e2c603083612718565b9150612e3782612dd0565b604082019050919050565b60006020820190508181036000830152612e5b81612e1f565b9050919050565b7f566572696669636174696f6e20616c726561647920726571756573746564206f60008201527f7220617070726f7665642e000000000000000000000000000000000000000000602082015250565b6000612ebe602b83612718565b9150612ec982612e62565b604082019050919050565b60006020820190508181036000830152612eed81612eb1565b9050919050565b7f4e487b7100000000000000000000000000000000000000000000000000000000600052602260045260246000fd5b60006002820490506001821680612f3b57607f821691505b602082108103612f4e57612f4d612ef4565b5b50919050565b7f4f6e6c7920746865206d616e7566616374757265722063616e20706572666f7260008201527f6d207468697320616374696f6e2e000000000000000000000000000000000000602082015250565b6000612fb0602e83612718565b9150612fbb82612f54565b604082019050919050565b60006020820190508181036000830152612fdf81612fa3565b9050919050565b7f496e76616c6964206469737472696275746f7220616464726573732e00000000600082015250565b600061301c601c83612718565b915061302782612fe6565b602082019050919050565b6000602082019050818103600083015261304b8161300f565b9050919050565b7f4f6e6c7920746865206d616e756661637475726572207468617420637265617460008201527f6564207468652070726f647563742063616e207368697020746f20746865206460208201527f69737472696275746f722e000000000000000000000000000000000000000000604082015250565b60006130d4604b83612718565b91506130df82613052565b606082019050919050565b60006020820190508181036000830152613103816130c7565b9050919050565b7f596f752063616e6e6f7420736869702070726f6475637420746f20796f75727360008201527f656c660000000000000000000000000000000000000000000000000000000000602082015250565b6000613166602383612718565b91506131718261310a565b604082019050919050565b6000602082019050818103600083015261319581613159565b9050919050565b6000815490506131ab81612f23565b9050919050565b60008190508160005260206000209050919050565b60006020601f8301049050919050565b600082821b905092915050565b6000600883026132147fffffffffffffffffffffffffffffffffffffffffffffffffffffffffffffffff826131d7565b61321e86836131d7565b95508019841693508086168417925050509392505050565b6000819050919050565b600061325b61325661325184612831565b613236565b612831565b9050919050565b6000819050919050565b61327583613240565b61328961328182613262565b8484546131e4565b825550505050565b600090565b61329e613291565b6132a981848461326c565b505050565b5b818110156132cd576132c2600082613296565b6001810190506132af565b5050565b601f821115613312576132e3816131b2565b6132ec846131c7565b810160208510156132fb578190505b61330f613307856131c7565b8301826132ae565b50505b505050565b600082821c905092915050565b600061333560001984600802613317565b1980831691505092915050565b600061334e8383613324565b9150826002028217905092915050565b81810361336c575050613444565b6133758261319c565b67ffffffffffffffff81111561338e5761338d612923565b5b6133988254612f23565b6133a38282856132d1565b6000601f8311600181146133d257600084156133c0578287015490505b6133ca8582613342565b86555061343d565b601f1984166133e0876131b2565b96506133eb866131b2565b60005b82811015613413578489015482556001820191506001850194506020810190506133ee565b86831015613430578489015461342c601f891682613324565b8355505b6001600288020188555050505b5050505050505b565b7f4f6e6c792074686520636f6e7472616374206f776e65722063616e207065726660008201527f6f726d207468697320616374696f6e2e00000000000000000000000000000000602082015250565b60006134a2603083612718565b91506134ad82613446565b604082019050919050565b600060208201905081810360008301526134d181613495565b9050919050565b7f566572696669636174696f6e206e6f7420726571756573746564206f7220616c60008201527f72656164792070726f6365737365642e00000000000000000000000000000000602082015250565b6000613534603083612718565b915061353f826134d8565b604082019050919050565b6000602082019050818103600083015261356381613527565b9050919050565b7f4f6e6c7920746865206469737472696275746f722063616e20706572666f726d60008201527f207468697320616374696f6e2e00000000000000000000000000000000000000602082015250565b60006135c6602d83612718565b91506135d18261356a565b604082019050919050565b600060208201905081810360008301526135f5816135b9565b9050919050565b7f496e76616c69642072657461696c657220616464726573732e00000000000000600082015250565b6000613632601983612718565b915061363d826135fc565b602082019050919050565b6000602082019050818103600083015261366181613625565b9050919050565b7f4f6e6c79207468652061737369676e6564206469737472696275746f7220636160008201527f6e207368697020746f207468652072657461696c65722e000000000000000000602082015250565b60006136c4603783612718565b91506136cf82613668565b604082019050919050565b600060208201905081810360008301526136f3816136b7565b9050919050565b7f4f6e6c79207468652072657461696c65722063616e20706572666f726d20746860008201527f697320616374696f6e2e00000000000000000000000000000000000000000000602082015250565b6000613756602a83612718565b9150613761826136fa565b604082019050919050565b6000602082019050818103600083015261378581613749565b9050919050565b7f4f6e6c79207468652061737369676e65642072657461696c65722063616e207360008201527f656c6c20746865206974656d2e00000000000000000000000000000000000000602082015250565b60006137e8602d83612718565b91506137f38261378c565b604082019050919050565b60006020820190508181036000830152613817816137db565b9050919050565b7f4f6e6c79206d616e756661637475726572732063616e2063726561746520697460008201527f656d732e00000000000000000000000000000000000000000000000000000000602082015250565b600061387a602483612718565b91506138858261381e565b604082019050919050565b600060208201905081810360008301526138a98161386d565b9050919050565b7f4e487b7100000000000000000000000000000000000000000000000000000000600052601160045260246000fd5b60006138ea82612831565b91507fffffffffffffffffffffffffffffffffffffffffffffffffffffffffffffffff820361391c5761391b6138b0565b5b600182019050919050565b6139308261270d565b67ffffffffffffffff81111561394957613948612923565b5b6139538254612f23565b61395e8282856132d1565b600060209050601f831160018114613991576000841561397f578287015190505b6139898582613342565b8655506139f1565b601f19841661399f866131b2565b60005b828110156139c7578489015182556001820191506020850194506020810190506139a2565b868310156139e457848901516139e0601f891682613324565b8355505b6001600288020188555050505b505050505050565b7f5573657220697320616c726561647920726567697374657265642e0000000000600082015250565b6000613a2f601b83612718565b9150613a3a826139f9565b602082019050919050565b60006020820190508181036000830152613a5e81613a22565b905091905056fea2646970667358221220c12b1cf59de204b0e4f55f814b1148e3be2edb878bd3b85628ec5eccf0b21f5464736f6c63430008170033",
  "linkReferences": {},
  "deployedLinkReferences": {}
}